:0C0000000C9434000C9401030C940000DC
:10000C000C9400000C9400000C9400000C94000064
:10001C000C9400000C9400000C9400000C94000054
:10002C000C9400000C9400000C9400000C94000044
:10003C000C9400000C9400000C9400000C94000034
:10004C000C9400000C9400000000FFFFFF00010066
:10005C00050054000300600156000000F894EE27E0
:10006C00ECBBF1E0FBBFEBBFE5BF8DE0A2E0BB2733
:10007C00ED938A95E9F780E094E0A0E6ED93019783
:10008C00E9F7EAE5F0E085919591009761F0A5918B
:10009C00B59105901590BF01F00105900D92019757
:1000AC00E1F7FB01F0CFEFE5EDBFE4E0EEBFC0E61A
:1000BC00D1E00C940D03E4D20E948603EBBBA0911B
:1000CC006001B09161018091620190916301E8E05F
:1000DC000E947A03E5BBE0916001E8BB0895D9D298
:1000EC00E4D2E9DF0895EAEAFAEA6AEA70E0E0931A
:1000FC006001F09361016093620170936301DBDF37
:10010C00D4D2C7D2D8DFD1D208950E9492033FEF48
:10011C0018E01130E8F12EEF00E00117B0F5E32FF5
:10012C00E223E8BBE5BBAF9902C0D89801C0D89ACE
:10013C00AE9902C0D99801C0D99AAD9902C0DA988B
:10014C0001C0DA9AAC9902C0DB9801C0DB9AAB997A
:10015C0002C0DC9801C0DC9AAA9902C0DD9801C0EB
:10016C00DD9AA99902C0DE9801C0DE9AA89902C056
:10017C00DF9801C0DF9AA5E5B0E00E947003E22F82
:10018C00EE0FE1602E2F0F5FC8CF35B31150C1CFEA
:10019C00B4C01A930A930CEF10E0143098F5E02FCA
:1001AC00E8BBE5BBAF9902C0D89801C0D89AAE990C
:1001BC0002C0D99801C0D99AAD9902C0DA9801C091
:1001CC00DA9AAC9902C0DB9801C0DB9AAB9902C0F9
:1001DC00DC9801C0DC9AAA9902C0DD9801C0DD9AB6
:1001EC00A99902C0DE9801C0DE9AA89902C0DF98D6
:1001FC0001C0DF9A5ED2E02FEE0FEE0FE3600E2F00
:10020C001F5FCBCF48C10E9492030FEF3FEF10E06E
:10021C001430A0F5E32FE023E8BBE5BBAF9902C097
:10022C00D89801C0D89AAE9902C0D99801C0D99A71
:10023C00AD9902C0DA9801C0DA9AAC9902C0DB9889
:10024C0001C0DB9AAB9902C0DC9801C0DC9AAA9978
:10025C0002C0DD9801C0DD9AA99902C0DE9801C0E8
:10026C00DE9AA89902C0DF9801C0DF9AA6E9B0E037
:10027C000E947003000F36951F5FCACFE0E03E2F3F
:10028C000E2F10E01430C8F5E02FEE0FE1700E2F9A
:10029C00E32FE695E4703E2FE02BE8BBE5BBAF996E
:1002AC0002C0D89801C0D89AAE9902C0D99801C0A2
:1002BC00D99AAD9902C0DA9801C0DA9AAC9902C009
:1002CC00DB9801C0DB9AAB9902C0DC9801C0DC9AC8
:1002DC00AA9902C0DD9801C0DD9AA99902C0DE98E6
:1002EC0001C0DE9AA89902C0DF9801C0DF9AA6E986
:1002FC00B0E00E9470031F5FC5CF0E949903249643
:10030C0008952897EEEFE883ECEFE983E8EFEA83B2
:10031C00E0EFEB83E0EEEC83E0ECED83E0E8EE83E2
:10032C00E0E0EF830E94920310E0183008F076C0F2
:10033C00E12FF0E0DE011496AE0FBF1F2C91332796
:10034C0008E0101798F5E22FE5BBE8BBAF9902C0A7
:10035C00D89801C0D89AAE9902C0D99801C0D99A40
:10036C00AD9902C0DA9801C0DA9AAC9902C0DB9858
:10037C0001C0DB9AAB9902C0DC9801C0DC9AAA9947
:10038C0002C0DD9801C0DD9AA99902C0DE9801C0B7
:10039C00DE9AA89902C0DF9801C0DF9A8ED1F901CC
:1003AC00EE0FFF1FE1609F010150CBCF09E010174A
:1003BC0080F5E22FE5BBE8BBAF9902C0D89801C02D
:1003CC00D89AAE9902C0D99801C0D99AAD9902C0F9
:1003DC00DA9801C0DA9AAC9902C0DB9801C0DB9ABA
:1003EC00AB9902C0DC9801C0DC9AAA9902C0DD98D6
:1003FC0001C0DD9AA99902C0DE9801C0DE9AA899C5
:10040C0002C0DF9801C0DF9A58D13695279501506C
:10041C00CECF2FEF30E051D11F5F87CF0E949903D1
:10042C002C9608951A930A9310EF00E0023098F579
:10043C00E12FE5BBE8BBAF9902C0D89801C0D89AB0
:10044C00AE9902C0D99801C0D99AAD9902C0DA9878
:10045C0001C0DA9AAC9902C0DB9801C0DB9AAB9967
:10046C0002C0DC9801C0DC9AAA9902C0DD9801C0D8
:10047C00DD9AA99902C0DE9801C0DE9AA89902C043
:10048C00DF9801C0DF9A15D1E12FE295E07FEF6094
:10049C001E2F0F5FCBCF09911991089522970E94BF
:1004AC0090034EEF50E02FE730E010E01430B0F541
:1004BC0008D1AF9902C0D89801C0D89AAE9902C0A1
:1004CC00D99801C0D99AAD9902C0DA9801C0DA9ACC
:1004DC00AC9902C0DB9801C0DB9AAB9902C0DC98E6
:1004EC0001C0DC9AAA9902C0DD9801C0DD9AA999D5
:1004FC0002C0DE9801C0DE9AA89902C0DF9801C044
:10050C00DF9AD7D0FA01EE0FFF1FE160AF01F901BE
:10051C00F695E795E0689F011F5FC8CFEFEFE5BB4D
:10052C00E8BBAF9902C0D89801C0D89AAE9902C066
:10053C00D99801C0D99AAD9902C0DA9801C0DA9A5B
:10054C00AC9902C0DB9801C0DB9AAB9902C0DC9875
:10055C0001C0DC9AAA9902C0DD9801C0DD9AA99964
:10056C0002C0DE9801C0DE9AA89902C0DF9801C0D3
:10057C00DF9A9FD04FEE50E027EF30E010E01430C0
:10058C00B0F59FD0AF9902C0D89801C0D89AAE9957
:10059C0002C0D99801C0D99AAD9902C0DA9801C0AD
:1005AC00DA9AAC9902C0DB9801C0DB9AAB9902C015
:1005BC00DC9801C0DC9AAA9902C0DD9801C0DD9AD2
:1005CC00A99902C0DE9801C0DE9AA89902C0DF98F2
:1005DC0001C0DF9A6ED0F901EE0FFF1FE1609F01A1
:1005EC00FA01F695E795E068AF011F5FC8CF0E944E
:1005FC00970328960895EA93EFB7EA935394E8E0AB
:10060C00E51509F45524E991EFBFE9911895929AF3
:10061C00E0E0E1BBEBBBEFEFEABBE5BBE4BBE8BB67
:10062C00E7BBEBB7E064EBBFE5B7E260E5BF7894FE
:10063C00552011F454DD22C0E1E0E51511F453DD31
:10064C001DC0E2E0E51511F460DD18C0E3E0E5152E
:10065C0011F49FDD13C0E4E0E51511F4D4DD0EC0F8
:10066C00E5E0E51511F44DDE09C0E6E0E51511F401
:10067C00D9DE04C0E7E0E51509F410DFD9CFFFCFD0
:10068C00E0916001F09161016091620170916301F0
:10069C000895F6DF0E948B03E0936001F0936101F3
:1006AC0060936201709363010895ACE2B1E00C9425
:1006BC007003A8ECB0E00C947003A1E4B0E00C94CF
:1006CC007003F901E423F523EE83FF83EE81E5BB90
:1006DC00E8BB0895109639F080ED97E00197F1F79B
:1006EC00A8951197C9F70895EE230E2EFD01BC01B4
:1006FC0031F076956795F795E7950A94D1F70895BB
:10070C00E62FF72F60E070E00895E095F095609586
:10071C00709508955A934A933A932A931A930A938D
:10072C0008955D814C813B812A811981088108954E
:00000001FF
